{
  "_format": "hh-sol-artifact-1",
  "contractName": "DepositAndMint",
  "sourceName": "contracts/DepositAndMint.sol",
  "abi": [
    {
      "inputs": [
        {
          "internalType": "address",
          "name": "_tokenContract",
          "type": "address"
        }
      ],
      "stateMutability": "nonpayable",
      "type": "constructor"
    },
    {
      "inputs": [
        {
          "internalType": "address",
          "name": "sender",
          "type": "address"
        },
        {
          "internalType": "uint256",
          "name": "tokenId",
          "type": "uint256"
        },
        {
          "internalType": "address",
          "name": "owner",
          "type": "address"
        }
      ],
      "name": "ERC721IncorrectOwner",
      "type": "error"
    },
    {
      "inputs": [
        {
          "internalType": "address",
          "name": "operator",
          "type": "address"
        },
        {
          "internalType": "uint256",
          "name": "tokenId",
          "type": "uint256"
        }
      ],
      "name": "ERC721InsufficientApproval",
      "type": "error"
    },
    {
      "inputs": [
        {
          "internalType": "address",
          "name": "approver",
          "type": "address"
        }
      ],
      "name": "ERC721InvalidApprover",
      "type": "error"
    },
    {
      "inputs": [
        {
          "internalType": "address",
          "name": "operator",
          "type": "address"
        }
      ],
      "name": "ERC721InvalidOperator",
      "type": "error"
    },
    {
      "inputs": [
        {
          "internalType": "address",
          "name": "owner",
          "type": "address"
        }
      ],
      "name": "ERC721InvalidOwner",
      "type": "error"
    },
    {
      "inputs": [
        {
          "internalType": "address",
          "name": "receiver",
          "type": "address"
        }
      ],
      "name": "ERC721InvalidReceiver",
      "type": "error"
    },
    {
      "inputs": [
        {
          "internalType": "address",
          "name": "sender",
          "type": "address"
        }
      ],
      "name": "ERC721InvalidSender",
      "type": "error"
    },
    {
      "inputs": [
        {
          "internalType": "uint256",
          "name": "tokenId",
          "type": "uint256"
        }
      ],
      "name": "ERC721NonexistentToken",
      "type": "error"
    },
    {
      "anonymous": false,
      "inputs": [
        {
          "indexed": true,
          "internalType": "address",
          "name": "owner",
          "type": "address"
        },
        {
          "indexed": true,
          "internalType": "address",
          "name": "approved",
          "type": "address"
        },
        {
          "indexed": true,
          "internalType": "uint256",
          "name": "tokenId",
          "type": "uint256"
        }
      ],
      "name": "Approval",
      "type": "event"
    },
    {
      "anonymous": false,
      "inputs": [
        {
          "indexed": true,
          "internalType": "address",
          "name": "owner",
          "type": "address"
        },
        {
          "indexed": true,
          "internalType": "address",
          "name": "operator",
          "type": "address"
        },
        {
          "indexed": false,
          "internalType": "bool",
          "name": "approved",
          "type": "bool"
        }
      ],
      "name": "ApprovalForAll",
      "type": "event"
    },
    {
      "anonymous": false,
      "inputs": [
        {
          "indexed": true,
          "internalType": "address",
          "name": "from",
          "type": "address"
        },
        {
          "indexed": true,
          "internalType": "address",
          "name": "to",
          "type": "address"
        },
        {
          "indexed": true,
          "internalType": "uint256",
          "name": "tokenId",
          "type": "uint256"
        }
      ],
      "name": "Transfer",
      "type": "event"
    },
    {
      "inputs": [],
      "name": "THRESHOLD",
      "outputs": [
        {
          "internalType": "uint256",
          "name": "",
          "type": "uint256"
        }
      ],
      "stateMutability": "view",
      "type": "function"
    },
    {
      "inputs": [
        {
          "internalType": "address",
          "name": "to",
          "type": "address"
        },
        {
          "internalType": "uint256",
          "name": "tokenId",
          "type": "uint256"
        }
      ],
      "name": "approve",
      "outputs": [],
      "stateMutability": "nonpayable",
      "type": "function"
    },
    {
      "inputs": [
        {
          "internalType": "address",
          "name": "owner",
          "type": "address"
        }
      ],
      "name": "balanceOf",
      "outputs": [
        {
          "internalType": "uint256",
          "name": "",
          "type": "uint256"
        }
      ],
      "stateMutability": "view",
      "type": "function"
    },
    {
      "inputs": [
        {
          "internalType": "uint256",
          "name": "amount",
          "type": "uint256"
        }
      ],
      "name": "deposit",
      "outputs": [],
      "stateMutability": "nonpayable",
      "type": "function"
    },
    {
      "inputs": [
        {
          "internalType": "uint256",
          "name": "tokenId",
          "type": "uint256"
        }
      ],
      "name": "getApproved",
      "outputs": [
        {
          "internalType": "address",
          "name": "",
          "type": "address"
        }
      ],
      "stateMutability": "view",
      "type": "function"
    },
    {
      "inputs": [],
      "name": "getContractTokenBalance",
      "outputs": [
        {
          "internalType": "uint256",
          "name": "",
          "type": "uint256"
        }
      ],
      "stateMutability": "view",
      "type": "function"
    },
    {
      "inputs": [
        {
          "internalType": "address",
          "name": "owner",
          "type": "address"
        },
        {
          "internalType": "address",
          "name": "operator",
          "type": "address"
        }
      ],
      "name": "isApprovedForAll",
      "outputs": [
        {
          "internalType": "bool",
          "name": "",
          "type": "bool"
        }
      ],
      "stateMutability": "view",
      "type": "function"
    },
    {
      "inputs": [],
      "name": "name",
      "outputs": [
        {
          "internalType": "string",
          "name": "",
          "type": "string"
        }
      ],
      "stateMutability": "view",
      "type": "function"
    },
    {
      "inputs": [
        {
          "internalType": "uint256",
          "name": "tokenId",
          "type": "uint256"
        }
      ],
      "name": "ownerOf",
      "outputs": [
        {
          "internalType": "address",
          "name": "",
          "type": "address"
        }
      ],
      "stateMutability": "view",
      "type": "function"
    },
    {
      "inputs": [
        {
          "internalType": "address",
          "name": "from",
          "type": "address"
        },
        {
          "internalType": "address",
          "name": "to",
          "type": "address"
        },
        {
          "internalType": "uint256",
          "name": "tokenId",
          "type": "uint256"
        }
      ],
      "name": "safeTransferFrom",
      "outputs": [],
      "stateMutability": "nonpayable",
      "type": "function"
    },
    {
      "inputs": [
        {
          "internalType": "address",
          "name": "from",
          "type": "address"
        },
        {
          "internalType": "address",
          "name": "to",
          "type": "address"
        },
        {
          "internalType": "uint256",
          "name": "tokenId",
          "type": "uint256"
        },
        {
          "internalType": "bytes",
          "name": "data",
          "type": "bytes"
        }
      ],
      "name": "safeTransferFrom",
      "outputs": [],
      "stateMutability": "nonpayable",
      "type": "function"
    },
    {
      "inputs": [
        {
          "internalType": "address",
          "name": "operator",
          "type": "address"
        },
        {
          "internalType": "bool",
          "name": "approved",
          "type": "bool"
        }
      ],
      "name": "setApprovalForAll",
      "outputs": [],
      "stateMutability": "nonpayable",
      "type": "function"
    },
    {
      "inputs": [
        {
          "internalType": "bytes4",
          "name": "interfaceId",
          "type": "bytes4"
        }
      ],
      "name": "supportsInterface",
      "outputs": [
        {
          "internalType": "bool",
          "name": "",
          "type": "bool"
        }
      ],
      "stateMutability": "view",
      "type": "function"
    },
    {
      "inputs": [],
      "name": "symbol",
      "outputs": [
        {
          "internalType": "string",
          "name": "",
          "type": "string"
        }
      ],
      "stateMutability": "view",
      "type": "function"
    },
    {
      "inputs": [],
      "name": "tokenContract",
      "outputs": [
        {
          "internalType": "contract IERC20",
          "name": "",
          "type": "address"
        }
      ],
      "stateMutability": "view",
      "type": "function"
    },
    {
      "inputs": [
        {
          "internalType": "uint256",
          "name": "tokenId",
          "type": "uint256"
        }
      ],
      "name": "tokenURI",
      "outputs": [
        {
          "internalType": "string",
          "name": "",
          "type": "string"
        }
      ],
      "stateMutability": "view",
      "type": "function"
    },
    {
      "inputs": [
        {
          "internalType": "address",
          "name": "from",
          "type": "address"
        },
        {
          "internalType": "address",
          "name": "to",
          "type": "address"
        },
        {
          "internalType": "uint256",
          "name": "tokenId",
          "type": "uint256"
        }
      ],
      "name": "transferFrom",
      "outputs": [],
      "stateMutability": "nonpayable",
      "type": "function"
    },
    {
      "inputs": [
        {
          "internalType": "address",
          "name": "",
          "type": "address"
        }
      ],
      "name": "userDeposits",
      "outputs": [
        {
          "internalType": "uint256",
          "name": "",
          "type": "uint256"
        }
      ],
      "stateMutability": "view",
      "type": "function"
    }
  ],
  "bytecode": "0x60a06040523480156200001157600080fd5b5060405162002da438038062002da48339818101604052810190620000379190620001e0565b6040518060400160405280600581526020017f4d794e46540000000000000000000000000000000000000000000000000000008152506040518060400160405280600481526020017f4d4e4654000000000000000000000000000000000000000000000000000000008152508160009081620000b491906200048c565b508060019081620000c691906200048c565b505050600073ffffffffffffffffffffffffffffffffffffffff168173ffffffffffffffffffffffffffffffffffffffff16036200013b576040517f08c379a00000000000000000000000000000000000000000000000000000000081526004016200013290620005d4565b60405180910390fd5b8073ffffffffffffffffffffffffffffffffffffffff1660808173ffffffffffffffffffffffffffffffffffffffff168152505050620005f6565b600080fd5b600073ffffffffffffffffffffffffffffffffffffffff82169050919050565b6000620001a8826200017b565b9050919050565b620001ba816200019b565b8114620001c657600080fd5b50565b600081519050620001da81620001af565b92915050565b600060208284031215620001f957620001f862000176565b5b60006200020984828501620001c9565b91505092915050565b600081519050919050565b7f4e487b7100000000000000000000000000000000000000000000000000000000600052604160045260246000fd5b7f4e487b7100000000000000000000000000000000000000000000000000000000600052602260045260246000fd5b600060028204905060018216806200029457607f821691505b602082108103620002aa57620002a96200024c565b5b50919050565b60008190508160005260206000209050919050565b60006020601f8301049050919050565b600082821b905092915050565b600060088302620003147fffffffffffffffffffffffffffffffffffffffffffffffffffffffffffffffff82620002d5565b620003208683620002d5565b95508019841693508086168417925050509392505050565b6000819050919050565b6000819050919050565b60006200036d62000367620003618462000338565b62000342565b62000338565b9050919050565b6000819050919050565b62000389836200034c565b620003a1620003988262000374565b848454620002e2565b825550505050565b600090565b620003b8620003a9565b620003c58184846200037e565b505050565b5b81811015620003ed57620003e1600082620003ae565b600181019050620003cb565b5050565b601f8211156200043c576200040681620002b0565b6200041184620002c5565b8101602085101562000421578190505b620004396200043085620002c5565b830182620003ca565b50505b505050565b600082821c905092915050565b6000620004616000198460080262000441565b1980831691505092915050565b60006200047c83836200044e565b9150826002028217905092915050565b620004978262000212565b67ffffffffffffffff811115620004b357620004b26200021d565b5b620004bf82546200027b565b620004cc828285620003f1565b600060209050601f831160018114620005045760008415620004ef578287015190505b620004fb85826200046e565b8655506200056b565b601f1984166200051486620002b0565b60005b828110156200053e5784890151825560018201915060208501945060208101905062000517565b868310156200055e57848901516200055a601f8916826200044e565b8355505b6001600288020188555050505b505050505050565b600082825260208201905092915050565b7f496e76616c696420746f6b656e20636f6e747261637420616464726573730000600082015250565b6000620005bc601e8362000573565b9150620005c98262000584565b602082019050919050565b60006020820190508181036000830152620005ef81620005ad565b9050919050565b6080516127766200062e6000396000818161066d0152818161072c0152818161090f015281816109f00152610ad101526127766000f3fe608060405234801561001057600080fd5b50600436106101165760003560e01c80636352211e116100a2578063a22cb46511610071578063a22cb465146102f5578063b6b55f2514610311578063b88d4fde1461032d578063c87b56dd14610349578063e985e9c51461037957610116565b80636352211e1461025957806370a0823114610289578063785ffb37146102b957806395d89b41146102d757610116565b80630ba36dcd116100e95780630ba36dcd146101b557806323b872dd146101e5578063317d94531461020157806342842e0e1461021f57806355a373d61461023b57610116565b806301ffc9a71461011b57806306fdde031461014b578063081812fc14610169578063095ea7b314610199575b600080fd5b61013560048036038101906101309190611bd3565b6103a9565b6040516101429190611c1b565b60405180910390f35b61015361048b565b6040516101609190611cc6565b60405180910390f35b610183600480360381019061017e9190611d1e565b61051d565b6040516101909190611d8c565b60405180910390f35b6101b360048036038101906101ae9190611dd3565b610539565b005b6101cf60048036038101906101ca9190611e13565b61054f565b6040516101dc9190611e4f565b60405180910390f35b6101ff60048036038101906101fa9190611e6a565b610567565b005b610209610669565b6040516102169190611e4f565b60405180910390f35b61023960048036038101906102349190611e6a565b61070a565b005b61024361072a565b6040516102509190611f1c565b60405180910390f35b610273600480360381019061026e9190611d1e565b61074e565b6040516102809190611d8c565b60405180910390f35b6102a3600480360381019061029e9190611e13565b610760565b6040516102b09190611e4f565b60405180910390f35b6102c161081a565b6040516102ce9190611e4f565b60405180910390f35b6102df610820565b6040516102ec9190611cc6565b60405180910390f35b61030f600480360381019061030a9190611f63565b6108b2565b005b61032b60048036038101906103269190611d1e565b6108c8565b005b610347600480360381019061034291906120d8565b610cab565b005b610363600480360381019061035e9190611d1e565b610cc8565b6040516103709190611cc6565b60405180910390f35b610393600480360381019061038e919061215b565b610d31565b6040516103a09190611c1b565b60405180910390f35b60007f80ac58cd000000000000000000000000000000000000000000000000000000007bffffffffffffffffffffffffffffffffffffffffffffffffffffffff1916827bffffffffffffffffffffffffffffffffffffffffffffffffffffffff1916148061047457507f5b5e139f000000000000000000000000000000000000000000000000000000007bffffffffffffffffffffffffffffffffffffffffffffffffffffffff1916827bffffffffffffffffffffffffffffffffffffffffffffffffffffffff1916145b80610484575061048382610dc5565b5b9050919050565b60606000805461049a906121ca565b80601f01602080910402602001604051908101604052809291908181526020018280546104c6906121ca565b80156105135780601f106104e857610100808354040283529160200191610513565b820191906000526020600020905b8154815290600101906020018083116104f657829003601f168201915b5050505050905090565b600061052882610e2f565b5061053282610eb7565b9050919050565b61054b8282610546610ef4565b610efc565b5050565b60076020528060005260406000206000915090505481565b600073ffffffffffffffffffffffffffffffffffffffff168273ffffffffffffffffffffffffffffffffffffffff16036105d95760006040517f64a0ae920000000000000000000000000000000000000000000000000000000081526004016105d09190611d8c565b60405180910390fd5b60006105ed83836105e8610ef4565b610f0e565b90508373ffffffffffffffffffffffffffffffffffffffff168173ffffffffffffffffffffffffffffffffffffffff1614610663578382826040517f64283d7b00000000000000000000000000000000000000000000000000000000815260040161065a939291906121fb565b60405180910390fd5b50505050565b60007f000000000000000000000000000000000000000000000000000000000000000073ffffffffffffffffffffffffffffffffffffffff166370a08231306040518263ffffffff1660e01b81526004016106c49190611d8c565b602060405180830381865afa1580156106e1573d6000803e3d6000fd5b505050506040513d601f19601f820116820180604052508101906107059190612247565b905090565b61072583838360405180602001604052806000815250610cab565b505050565b7f000000000000000000000000000000000000000000000000000000000000000081565b600061075982610e2f565b9050919050565b60008073ffffffffffffffffffffffffffffffffffffffff168273ffffffffffffffffffffffffffffffffffffffff16036107d35760006040517f89c62b640000000000000000000000000000000000000000000000000000000081526004016107ca9190611d8c565b60405180910390fd5b600360008373ffffffffffffffffffffffffffffffffffffffff1673ffffffffffffffffffffffffffffffffffffffff168152602001908152602001600020549050919050565b6103e881565b60606001805461082f906121ca565b80601f016020809104026020016040519081016040528092919081815260200182805461085b906121ca565b80156108a85780601f1061087d576101008083540402835291602001916108a8565b820191906000526020600020905b81548152906001019060200180831161088b57829003601f168201915b5050505050905090565b6108c46108bd610ef4565b8383611128565b5050565b6000811161090b576040517f08c379a0000000000000000000000000000000000000000000000000000000008152600401610902906122c0565b60405180910390fd5b60007f000000000000000000000000000000000000000000000000000000000000000073ffffffffffffffffffffffffffffffffffffffff166370a08231336040518263ffffffff1660e01b81526004016109669190611d8c565b602060405180830381865afa158015610983573d6000803e3d6000fd5b505050506040513d601f19601f820116820180604052508101906109a79190612247565b9050818110156109ec576040517f08c379a00000000000000000000000000000000000000000000000000000000081526004016109e39061232c565b60405180910390fd5b60007f000000000000000000000000000000000000000000000000000000000000000073ffffffffffffffffffffffffffffffffffffffff1663dd62ed3e33306040518363ffffffff1660e01b8152600401610a4992919061234c565b602060405180830381865afa158015610a66573d6000803e3d6000fd5b505050506040513d601f19601f82011682018060405250810190610a8a9190612247565b905082811015610acf576040517f08c379a0000000000000000000000000000000000000000000000000000000008152600401610ac6906123c1565b60405180910390fd5b7f000000000000000000000000000000000000000000000000000000000000000073ffffffffffffffffffffffffffffffffffffffff166323b872dd3330866040518463ffffffff1660e01b8152600401610b2c939291906123e1565b6020604051808303816000875af1158015610b4b573d6000803e3d6000fd5b505050506040513d601f19601f82011682018060405250810190610b6f919061242d565b610bae576040517f08c379a0000000000000000000000000000000000000000000000000000000008152600401610ba5906124a6565b60405180910390fd5b600083600760003373ffffffffffffffffffffffffffffffffffffffff1673ffffffffffffffffffffffffffffffffffffffff16815260200190815260200160002054610bfb91906124f5565b905080600760003373ffffffffffffffffffffffffffffffffffffffff1673ffffffffffffffffffffffffffffffffffffffff168152602001908152602001600020819055506103e88110610ca557610c5333611297565b6103e881610c619190612529565b600760003373ffffffffffffffffffffffffffffffffffffffff1673ffffffffffffffffffffffffffffffffffffffff168152602001908152602001600020819055505b50505050565b610cb6848484610567565b610cc2848484846112be565b50505050565b6060610cd382610e2f565b506000610cde611475565b90506000815111610cfe5760405180602001604052806000815250610d29565b80610d088461148c565b604051602001610d19929190612599565b6040516020818303038152906040525b915050919050565b6000600560008473ffffffffffffffffffffffffffffffffffffffff1673ffffffffffffffffffffffffffffffffffffffff16815260200190815260200160002060008373ffffffffffffffffffffffffffffffffffffffff1673ffffffffffffffffffffffffffffffffffffffff16815260200190815260200160002060009054906101000a900460ff16905092915050565b60007f01ffc9a7000000000000000000000000000000000000000000000000000000007bffffffffffffffffffffffffffffffffffffffffffffffffffffffff1916827bffffffffffffffffffffffffffffffffffffffffffffffffffffffff1916149050919050565b600080610e3b8361155a565b9050600073ffffffffffffffffffffffffffffffffffffffff168173ffffffffffffffffffffffffffffffffffffffff1603610eae57826040517f7e273289000000000000000000000000000000000000000000000000000000008152600401610ea59190611e4f565b60405180910390fd5b80915050919050565b60006004600083815260200190815260200160002060009054906101000a900473ffffffffffffffffffffffffffffffffffffffff169050919050565b600033905090565b610f098383836001611597565b505050565b600080610f1a8461155a565b9050600073ffffffffffffffffffffffffffffffffffffffff168373ffffffffffffffffffffffffffffffffffffffff1614610f5c57610f5b81848661175c565b5b600073ffffffffffffffffffffffffffffffffffffffff168173ffffffffffffffffffffffffffffffffffffffff1614610fed57610f9e600085600080611597565b6001600360008373ffffffffffffffffffffffffffffffffffffffff1673ffffffffffffffffffffffffffffffffffffffff168152602001908152602001600020600082825403925050819055505b600073ffffffffffffffffffffffffffffffffffffffff168573ffffffffffffffffffffffffffffffffffffffff1614611070576001600360008773ffffffffffffffffffffffffffffffffffffffff1673ffffffffffffffffffffffffffffffffffffffff168152602001908152602001600020600082825401925050819055505b846002600086815260200190815260200160002060006101000a81548173ffffffffffffffffffffffffffffffffffffffff021916908373ffffffffffffffffffffffffffffffffffffffff160217905550838573ffffffffffffffffffffffffffffffffffffffff168273ffffffffffffffffffffffffffffffffffffffff167fddf252ad1be2c89b69c2b068fc378daa952ba7f163c4a11628f55a4df523b3ef60405160405180910390a4809150509392505050565b600073ffffffffffffffffffffffffffffffffffffffff168273ffffffffffffffffffffffffffffffffffffffff160361119957816040517f5b08ba180000000000000000000000000000000000000000000000000000000081526004016111909190611d8c565b60405180910390fd5b80600560008573ffffffffffffffffffffffffffffffffffffffff1673ffffffffffffffffffffffffffffffffffffffff16815260200190815260200160002060008473ffffffffffffffffffffffffffffffffffffffff1673ffffffffffffffffffffffffffffffffffffffff16815260200190815260200160002060006101000a81548160ff0219169083151502179055508173ffffffffffffffffffffffffffffffffffffffff168373ffffffffffffffffffffffffffffffffffffffff167f17307eab39ab6107e8899845ad3d59bd9653f200f220920489ca2b5937696c318360405161128a9190611c1b565b60405180910390a3505050565b6112a381600654611820565b600660008154809291906112b6906125bd565b919050555050565b60008373ffffffffffffffffffffffffffffffffffffffff163b111561146f578273ffffffffffffffffffffffffffffffffffffffff1663150b7a02611302610ef4565b8685856040518563ffffffff1660e01b8152600401611324949392919061265a565b6020604051808303816000875af192505050801561136057506040513d601f19601f8201168201806040525081019061135d91906126bb565b60015b6113e4573d8060008114611390576040519150601f19603f3d011682016040523d82523d6000602084013e611395565b606091505b5060008151036113dc57836040517f64a0ae920000000000000000000000000000000000000000000000000000000081526004016113d39190611d8c565b60405180910390fd5b805181602001fd5b63150b7a0260e01b7bffffffffffffffffffffffffffffffffffffffffffffffffffffffff1916817bffffffffffffffffffffffffffffffffffffffffffffffffffffffff19161461146d57836040517f64a0ae920000000000000000000000000000000000000000000000000000000081526004016114649190611d8c565b60405180910390fd5b505b50505050565b606060405180602001604052806000815250905090565b60606000600161149b8461183e565b01905060008167ffffffffffffffff8111156114ba576114b9611fad565b5b6040519080825280601f01601f1916602001820160405280156114ec5781602001600182028036833780820191505090505b509050600082602001820190505b60011561154f578080600190039150507f3031323334353637383961626364656600000000000000000000000000000000600a86061a8153600a8581611543576115426126e8565b5b049450600085036114fa575b819350505050919050565b60006002600083815260200190815260200160002060009054906101000a900473ffffffffffffffffffffffffffffffffffffffff169050919050565b80806115d05750600073ffffffffffffffffffffffffffffffffffffffff168273ffffffffffffffffffffffffffffffffffffffff1614155b156117045760006115e084610e2f565b9050600073ffffffffffffffffffffffffffffffffffffffff168373ffffffffffffffffffffffffffffffffffffffff161415801561164b57508273ffffffffffffffffffffffffffffffffffffffff168173ffffffffffffffffffffffffffffffffffffffff1614155b801561165e575061165c8184610d31565b155b156116a057826040517fa9fbf51f0000000000000000000000000000000000000000000000000000000081526004016116979190611d8c565b60405180910390fd5b811561170257838573ffffffffffffffffffffffffffffffffffffffff168273ffffffffffffffffffffffffffffffffffffffff167f8c5be1e5ebec7d5bd14f71427d1e84f3dd0314c0f7b2291e5b200ac8c7c3b92560405160405180910390a45b505b836004600085815260200190815260200160002060006101000a81548173ffffffffffffffffffffffffffffffffffffffff021916908373ffffffffffffffffffffffffffffffffffffffff16021790555050505050565b611767838383611991565b61181b57600073ffffffffffffffffffffffffffffffffffffffff168373ffffffffffffffffffffffffffffffffffffffff16036117dc57806040517f7e2732890000000000000000000000000000000000000000000000000000000081526004016117d39190611e4f565b60405180910390fd5b81816040517f177e802f000000000000000000000000000000000000000000000000000000008152600401611812929190612717565b60405180910390fd5b505050565b61183a828260405180602001604052806000815250611a52565b5050565b600080600090507a184f03e93ff9f4daa797ed6e38ed64bf6a1f010000000000000000831061189c577a184f03e93ff9f4daa797ed6e38ed64bf6a1f0100000000000000008381611892576118916126e8565b5b0492506040810190505b6d04ee2d6d415b85acef810000000083106118d9576d04ee2d6d415b85acef810000000083816118cf576118ce6126e8565b5b0492506020810190505b662386f26fc10000831061190857662386f26fc1000083816118fe576118fd6126e8565b5b0492506010810190505b6305f5e1008310611931576305f5e1008381611927576119266126e8565b5b0492506008810190505b612710831061195657612710838161194c5761194b6126e8565b5b0492506004810190505b60648310611979576064838161196f5761196e6126e8565b5b0492506002810190505b600a8310611988576001810190505b80915050919050565b60008073ffffffffffffffffffffffffffffffffffffffff168373ffffffffffffffffffffffffffffffffffffffff1614158015611a4957508273ffffffffffffffffffffffffffffffffffffffff168473ffffffffffffffffffffffffffffffffffffffff161480611a0a5750611a098484610d31565b5b80611a4857508273ffffffffffffffffffffffffffffffffffffffff16611a3083610eb7565b73ffffffffffffffffffffffffffffffffffffffff16145b5b90509392505050565b611a5c8383611a6e565b611a6960008484846112be565b505050565b600073ffffffffffffffffffffffffffffffffffffffff168273ffffffffffffffffffffffffffffffffffffffff1603611ae05760006040517f64a0ae92000000000000000000000000000000000000000000000000000000008152600401611ad79190611d8c565b60405180910390fd5b6000611aee83836000610f0e565b9050600073ffffffffffffffffffffffffffffffffffffffff168173ffffffffffffffffffffffffffffffffffffffff1614611b625760006040517f73c6ac6e000000000000000000000000000000000000000000000000000000008152600401611b599190611d8c565b60405180910390fd5b505050565b6000604051905090565b600080fd5b600080fd5b60007fffffffff0000000000000000000000000000000000000000000000000000000082169050919050565b611bb081611b7b565b8114611bbb57600080fd5b50565b600081359050611bcd81611ba7565b92915050565b600060208284031215611be957611be8611b71565b5b6000611bf784828501611bbe565b91505092915050565b60008115159050919050565b611c1581611c00565b82525050565b6000602082019050611c306000830184611c0c565b92915050565b600081519050919050565b600082825260208201905092915050565b60005b83811015611c70578082015181840152602081019050611c55565b60008484015250505050565b6000601f19601f8301169050919050565b6000611c9882611c36565b611ca28185611c41565b9350611cb2818560208601611c52565b611cbb81611c7c565b840191505092915050565b60006020820190508181036000830152611ce08184611c8d565b905092915050565b6000819050919050565b611cfb81611ce8565b8114611d0657600080fd5b50565b600081359050611d1881611cf2565b92915050565b600060208284031215611d3457611d33611b71565b5b6000611d4284828501611d09565b91505092915050565b600073ffffffffffffffffffffffffffffffffffffffff82169050919050565b6000611d7682611d4b565b9050919050565b611d8681611d6b565b82525050565b6000602082019050611da16000830184611d7d565b92915050565b611db081611d6b565b8114611dbb57600080fd5b50565b600081359050611dcd81611da7565b92915050565b60008060408385031215611dea57611de9611b71565b5b6000611df885828601611dbe565b9250506020611e0985828601611d09565b9150509250929050565b600060208284031215611e2957611e28611b71565b5b6000611e3784828501611dbe565b91505092915050565b611e4981611ce8565b82525050565b6000602082019050611e646000830184611e40565b92915050565b600080600060608486031215611e8357611e82611b71565b5b6000611e9186828701611dbe565b9350506020611ea286828701611dbe565b9250506040611eb386828701611d09565b9150509250925092565b6000819050919050565b6000611ee2611edd611ed884611d4b565b611ebd565b611d4b565b9050919050565b6000611ef482611ec7565b9050919050565b6000611f0682611ee9565b9050919050565b611f1681611efb565b82525050565b6000602082019050611f316000830184611f0d565b92915050565b611f4081611c00565b8114611f4b57600080fd5b50565b600081359050611f5d81611f37565b92915050565b60008060408385031215611f7a57611f79611b71565b5b6000611f8885828601611dbe565b9250506020611f9985828601611f4e565b9150509250929050565b600080fd5b600080fd5b7f4e487b7100000000000000000000000000000000000000000000000000000000600052604160045260246000fd5b611fe582611c7c565b810181811067ffffffffffffffff8211171561200457612003611fad565b5b80604052505050565b6000612017611b67565b90506120238282611fdc565b919050565b600067ffffffffffffffff82111561204357612042611fad565b5b61204c82611c7c565b9050602081019050919050565b82818337600083830152505050565b600061207b61207684612028565b61200d565b90508281526020810184848401111561209757612096611fa8565b5b6120a2848285612059565b509392505050565b600082601f8301126120bf576120be611fa3565b5b81356120cf848260208601612068565b91505092915050565b600080600080608085870312156120f2576120f1611b71565b5b600061210087828801611dbe565b945050602061211187828801611dbe565b935050604061212287828801611d09565b925050606085013567ffffffffffffffff81111561214357612142611b76565b5b61214f878288016120aa565b91505092959194509250565b6000806040838503121561217257612171611b71565b5b600061218085828601611dbe565b925050602061219185828601611dbe565b9150509250929050565b7f4e487b7100000000000000000000000000000000000000000000000000000000600052602260045260246000fd5b600060028204905060018216806121e257607f821691505b6020821081036121f5576121f461219b565b5b50919050565b60006060820190506122106000830186611d7d565b61221d6020830185611e40565b61222a6040830184611d7d565b949350505050565b60008151905061224181611cf2565b92915050565b60006020828403121561225d5761225c611b71565b5b600061226b84828501612232565b91505092915050565b7f416d6f756e74206d7573742062652067726561746572207468616e2030000000600082015250565b60006122aa601d83611c41565b91506122b582612274565b602082019050919050565b600060208201905081810360008301526122d98161229d565b9050919050565b7f496e73756666696369656e742062616c616e6365000000000000000000000000600082015250565b6000612316601483611c41565b9150612321826122e0565b602082019050919050565b6000602082019050818103600083015261234581612309565b9050919050565b60006040820190506123616000830185611d7d565b61236e6020830184611d7d565b9392505050565b7f496e73756666696369656e7420616c6c6f77616e636500000000000000000000600082015250565b60006123ab601683611c41565b91506123b682612375565b602082019050919050565b600060208201905081810360008301526123da8161239e565b9050919050565b60006060820190506123f66000830186611d7d565b6124036020830185611d7d565b6124106040830184611e40565b949350505050565b60008151905061242781611f37565b92915050565b60006020828403121561244357612442611b71565b5b600061245184828501612418565b91505092915050565b7f5472616e73666572206661696c65640000000000000000000000000000000000600082015250565b6000612490600f83611c41565b915061249b8261245a565b602082019050919050565b600060208201905081810360008301526124bf81612483565b9050919050565b7f4e487b7100000000000000000000000000000000000000000000000000000000600052601160045260246000fd5b600061250082611ce8565b915061250b83611ce8565b9250828201905080821115612523576125226124c6565b5b92915050565b600061253482611ce8565b915061253f83611ce8565b9250828203905081811115612557576125566124c6565b5b92915050565b600081905092915050565b600061257382611c36565b61257d818561255d565b935061258d818560208601611c52565b80840191505092915050565b60006125a58285612568565b91506125b18284612568565b91508190509392505050565b60006125c882611ce8565b91507fffffffffffffffffffffffffffffffffffffffffffffffffffffffffffffffff82036125fa576125f96124c6565b5b600182019050919050565b600081519050919050565b600082825260208201905092915050565b600061262c82612605565b6126368185612610565b9350612646818560208601611c52565b61264f81611c7c565b840191505092915050565b600060808201905061266f6000830187611d7d565b61267c6020830186611d7d565b6126896040830185611e40565b818103606083015261269b8184612621565b905095945050505050565b6000815190506126b581611ba7565b92915050565b6000602082840312156126d1576126d0611b71565b5b60006126df848285016126a6565b91505092915050565b7f4e487b7100000000000000000000000000000000000000000000000000000000600052601260045260246000fd5b600060408201905061272c6000830185611d7d565b6127396020830184611e40565b939250505056fea264697066735822122097330c0edd959325d1a91298bc461fbea713171efac51bde683edf0eef255dbc64736f6c63430008180033",
  "linkReferences": {},
  "deployedLinkReferences": {}
}